{
  "contractName": "RobotFactory",
  "abi": [
    {
      "anonymous": false,
      "inputs": [
        {
          "indexed": true,
          "internalType": "address",
          "name": "previousOwner",
          "type": "address"
        },
        {
          "indexed": true,
          "internalType": "address",
          "name": "newOwner",
          "type": "address"
        }
      ],
      "name": "OwnershipTransferred",
      "type": "event"
    },
    {
      "inputs": [],
      "name": "owner",
      "outputs": [
        {
          "internalType": "address",
          "name": "",
          "type": "address"
        }
      ],
      "stateMutability": "view",
      "type": "function",
      "constant": true
    },
    {
      "inputs": [],
      "name": "renounceOwnership",
      "outputs": [],
      "stateMutability": "nonpayable",
      "type": "function"
    },
    {
      "inputs": [
        {
          "internalType": "uint256",
          "name": "",
          "type": "uint256"
        }
      ],
      "name": "robotArray",
      "outputs": [
        {
          "internalType": "contract Robot",
          "name": "",
          "type": "address"
        }
      ],
      "stateMutability": "view",
      "type": "function",
      "constant": true
    },
    {
      "inputs": [
        {
          "internalType": "address",
          "name": "newOwner",
          "type": "address"
        }
      ],
      "name": "transferOwnership",
      "outputs": [],
      "stateMutability": "nonpayable",
      "type": "function"
    },
    {
      "inputs": [
        {
          "internalType": "string",
          "name": "_name",
          "type": "string"
        },
        {
          "internalType": "string",
          "name": "_master",
          "type": "string"
        }
      ],
      "name": "createRobot",
      "outputs": [
        {
          "internalType": "address",
          "name": "",
          "type": "address"
        }
      ],
      "stateMutability": "nonpayable",
      "type": "function"
    },
    {
      "inputs": [],
      "name": "getRobotCount",
      "outputs": [
        {
          "internalType": "uint256",
          "name": "",
          "type": "uint256"
        }
      ],
      "stateMutability": "view",
      "type": "function",
      "constant": true
    },
    {
      "inputs": [],
      "name": "getAllRobots",
      "outputs": [
        {
          "internalType": "contract Robot[]",
          "name": "",
          "type": "address[]"
        }
      ],
      "stateMutability": "view",
      "type": "function",
      "constant": true
    },
    {
      "inputs": [
        {
          "internalType": "uint32",
          "name": "_idx",
          "type": "uint32"
        },
        {
          "internalType": "string",
          "name": "_master",
          "type": "string"
        }
      ],
      "name": "setRobotMaster",
      "outputs": [],
      "stateMutability": "nonpayable",
      "type": "function"
    },
    {
      "inputs": [
        {
          "internalType": "uint32",
          "name": "_idx",
          "type": "uint32"
        }
      ],
      "name": "getRobotMaster",
      "outputs": [
        {
          "internalType": "string",
          "name": "",
          "type": "string"
        }
      ],
      "stateMutability": "view",
      "type": "function",
      "constant": true
    }
  ],
  "bytecode": "0x60806040526000600260006101000a81548163ffffffff021916908363ffffffff16021790555034801561003257600080fd5b5061004f61004461005460201b60201c565b61005c60201b60201c565b610120565b600033905090565b60008060009054906101000a900473ffffffffffffffffffffffffffffffffffffffff169050816000806101000a81548173ffffffffffffffffffffffffffffffffffffffff021916908373ffffffffffffffffffffffffffffffffffffffff1602179055508173ffffffffffffffffffffffffffffffffffffffff168173ffffffffffffffffffffffffffffffffffffffff167f8be0079c531659141344cd1fd0a4f28419497f9722a3daafe3b4186f6b6457e060405160405180910390a35050565b611b6f8061012f6000396000f3fe608060405234801561001057600080fd5b50600436106100935760003560e01c80639c5faf0a116100665780639c5faf0a146100fa578063ddc9cecb1461012a578063f2fde38b14610148578063fa9e5f6414610164578063fd1821d91461019457610093565b8063671dbe7a14610098578063715018a6146100b65780637fdb2cc7146100c05780638da5cb5b146100dc575b600080fd5b6100a06101c4565b6040516100ad919061075b565b60405180910390f35b6100be6101d1565b005b6100da60048036038101906100d5919061090c565b6101e5565b005b6100e46102a0565b6040516100f191906109a9565b60405180910390f35b610114600480360381019061010f91906109c4565b6102c9565b60405161012191906109a9565b60405180910390f35b6101326103da565b60405161013f9190610b4a565b60405180910390f35b610162600480360381019061015d9190610b98565b610468565b005b61017e60048036038101906101799190610bc5565b6104eb565b60405161018b9190610c71565b60405180910390f35b6101ae60048036038101906101a99190610cbf565b6105ac565b6040516101bb9190610cfb565b60405180910390f35b6000600180549050905090565b6101d96105eb565b6101e36000610669565b565b6101ed6105eb565b60018263ffffffff168154811061020757610206610d16565b5b9060005260206000200160009054906101000a900473ffffffffffffffffffffffffffffffffffffffff1673ffffffffffffffffffffffffffffffffffffffff16635ce39743826040518263ffffffff1660e01b815260040161026a9190610c71565b600060405180830381600087803b15801561028457600080fd5b505af1158015610298573d6000803e3d6000fd5b505050505050565b60008060009054906101000a900473ffffffffffffffffffffffffffffffffffffffff16905090565b60006102d36105eb565b60006040516102e190610735565b604051809103906000f0801580156102fd573d6000803e3d6000fd5b5090508073ffffffffffffffffffffffffffffffffffffffff16634cd88b7685856040518363ffffffff1660e01b815260040161033b929190610d45565b600060405180830381600087803b15801561035557600080fd5b505af1158015610369573d6000803e3d6000fd5b505050506001819080600181540180825580915050600190039060005260206000200160009091909190916101000a81548173ffffffffffffffffffffffffffffffffffffffff021916908373ffffffffffffffffffffffffffffffffffffffff1602179055508091505092915050565b6060600180548060200260200160405190810160405280929190818152602001828054801561045e57602002820191906000526020600020905b8160009054906101000a900473ffffffffffffffffffffffffffffffffffffffff1673ffffffffffffffffffffffffffffffffffffffff1681526020019060010190808311610414575b5050505050905090565b6104706105eb565b600073ffffffffffffffffffffffffffffffffffffffff168173ffffffffffffffffffffffffffffffffffffffff16036104df576040517f08c379a00000000000000000000000000000000000000000000000000000000081526004016104d690610dee565b60405180910390fd5b6104e881610669565b50565b606060018263ffffffff168154811061050757610506610d16565b5b9060005260206000200160009054906101000a900473ffffffffffffffffffffffffffffffffffffffff1673ffffffffffffffffffffffffffffffffffffffff16635a99719e6040518163ffffffff1660e01b8152600401600060405180830381865afa15801561057c573d6000803e3d6000fd5b505050506040513d6000823e3d601f19601f820116820180604052508101906105a59190610e7e565b9050919050565b600181815481106105bc57600080fd5b906000526020600020016000915054906101000a900473ffffffffffffffffffffffffffffffffffffffff1681565b6105f361072d565b73ffffffffffffffffffffffffffffffffffffffff166106116102a0565b73ffffffffffffffffffffffffffffffffffffffff1614610667576040517f08c379a000000000000000000000000000000000000000000000000000000000815260040161065e90610f13565b60405180910390fd5b565b60008060009054906101000a900473ffffffffffffffffffffffffffffffffffffffff169050816000806101000a81548173ffffffffffffffffffffffffffffffffffffffff021916908373ffffffffffffffffffffffffffffffffffffffff1602179055508173ffffffffffffffffffffffffffffffffffffffff168173ffffffffffffffffffffffffffffffffffffffff167f8be0079c531659141344cd1fd0a4f28419497f9722a3daafe3b4186f6b6457e060405160405180910390a35050565b600033905090565b610c0680610f3483390190565b6000819050919050565b61075581610742565b82525050565b6000602082019050610770600083018461074c565b92915050565b6000604051905090565b600080fd5b600080fd5b600063ffffffff82169050919050565b6107a38161078a565b81146107ae57600080fd5b50565b6000813590506107c08161079a565b92915050565b600080fd5b600080fd5b6000601f19601f8301169050919050565b7f4e487b7100000000000000000000000000000000000000000000000000000000600052604160045260246000fd5b610819826107d0565b810181811067ffffffffffffffff82111715610838576108376107e1565b5b80604052505050565b600061084b610776565b90506108578282610810565b919050565b600067ffffffffffffffff821115610877576108766107e1565b5b610880826107d0565b9050602081019050919050565b82818337600083830152505050565b60006108af6108aa8461085c565b610841565b9050828152602081018484840111156108cb576108ca6107cb565b5b6108d684828561088d565b509392505050565b600082601f8301126108f3576108f26107c6565b5b813561090384826020860161089c565b91505092915050565b6000806040838503121561092357610922610780565b5b6000610931858286016107b1565b925050602083013567ffffffffffffffff81111561095257610951610785565b5b61095e858286016108de565b9150509250929050565b600073ffffffffffffffffffffffffffffffffffffffff82169050919050565b600061099382610968565b9050919050565b6109a381610988565b82525050565b60006020820190506109be600083018461099a565b92915050565b600080604083850312156109db576109da610780565b5b600083013567ffffffffffffffff8111156109f9576109f8610785565b5b610a05858286016108de565b925050602083013567ffffffffffffffff811115610a2657610a25610785565b5b610a32858286016108de565b9150509250929050565b600081519050919050565b600082825260208201905092915050565b6000819050602082019050919050565b6000819050919050565b6000610a8d610a88610a8384610968565b610a68565b610968565b9050919050565b6000610a9f82610a72565b9050919050565b6000610ab182610a94565b9050919050565b610ac181610aa6565b82525050565b6000610ad38383610ab8565b60208301905092915050565b6000602082019050919050565b6000610af782610a3c565b610b018185610a47565b9350610b0c83610a58565b8060005b83811015610b3d578151610b248882610ac7565b9750610b2f83610adf565b925050600181019050610b10565b5085935050505092915050565b60006020820190508181036000830152610b648184610aec565b905092915050565b610b7581610988565b8114610b8057600080fd5b50565b600081359050610b9281610b6c565b92915050565b600060208284031215610bae57610bad610780565b5b6000610bbc84828501610b83565b91505092915050565b600060208284031215610bdb57610bda610780565b5b6000610be9848285016107b1565b91505092915050565b600081519050919050565b600082825260208201905092915050565b60005b83811015610c2c578082015181840152602081019050610c11565b60008484015250505050565b6000610c4382610bf2565b610c4d8185610bfd565b9350610c5d818560208601610c0e565b610c66816107d0565b840191505092915050565b60006020820190508181036000830152610c8b8184610c38565b905092915050565b610c9c81610742565b8114610ca757600080fd5b50565b600081359050610cb981610c93565b92915050565b600060208284031215610cd557610cd4610780565b5b6000610ce384828501610caa565b91505092915050565b610cf581610aa6565b82525050565b6000602082019050610d106000830184610cec565b92915050565b7f4e487b7100000000000000000000000000000000000000000000000000000000600052603260045260246000fd5b60006040820190508181036000830152610d5f8185610c38565b90508181036020830152610d738184610c38565b90509392505050565b7f4f776e61626c653a206e6577206f776e657220697320746865207a65726f206160008201527f6464726573730000000000000000000000000000000000000000000000000000602082015250565b6000610dd8602683610bfd565b9150610de382610d7c565b604082019050919050565b60006020820190508181036000830152610e0781610dcb565b9050919050565b6000610e21610e1c8461085c565b610841565b905082815260208101848484011115610e3d57610e3c6107cb565b5b610e48848285610c0e565b509392505050565b600082601f830112610e6557610e646107c6565b5b8151610e75848260208601610e0e565b91505092915050565b600060208284031215610e9457610e93610780565b5b600082015167ffffffffffffffff811115610eb257610eb1610785565b5b610ebe84828501610e50565b91505092915050565b7f4f776e61626c653a2063616c6c6572206973206e6f7420746865206f776e6572600082015250565b6000610efd602083610bfd565b9150610f0882610ec7565b602082019050919050565b60006020820190508181036000830152610f2c81610ef0565b905091905056fe608060405234801561001057600080fd5b50610be6806100206000396000f3fe608060405234801561001057600080fd5b50600436106100575760003560e01c806306fdde031461005c5780632e0826fa1461007a5780634cd88b76146100985780635a99719e146100b45780635ce39743146100d2575b600080fd5b6100646100ee565b6040516100719190610454565b60405180910390f35b61008261017c565b60405161008f9190610454565b60405180910390f35b6100b260048036038101906100ad91906105bf565b6101a4565b005b6100bc6102fc565b6040516100c99190610454565b60405180910390f35b6100ec60048036038101906100e79190610637565b61038e565b005b600180546100fb906106af565b80601f0160208091040260200160405190810160405280929190818152602001828054610127906106af565b80156101745780601f1061014957610100808354040283529160200191610174565b820191906000526020600020905b81548152906001019060200180831161015757829003601f168201915b505050505081565b60606002604051602001610190919061081b565b604051602081830303815290604052905090565b60008060019054906101000a900460ff161590508080156101d55750600160008054906101000a900460ff1660ff16105b8061020257506101e4306103a1565b1580156102015750600160008054906101000a900460ff1660ff16145b5b610241576040517f08c379a0000000000000000000000000000000000000000000000000000000008152600401610238906108ba565b60405180910390fd5b60016000806101000a81548160ff021916908360ff160217905550801561027e576001600060016101000a81548160ff0219169083151502179055505b826001908161028d9190610a7b565b50816002908161029d9190610a7b565b5080156102f75760008060016101000a81548160ff0219169083151502179055507f7f26b83ff96e1f2b6a682f133852f6798a09c465da95921460cefb384740249860016040516102ee9190610b95565b60405180910390a15b505050565b60606002805461030b906106af565b80601f0160208091040260200160405190810160405280929190818152602001828054610337906106af565b80156103845780601f1061035957610100808354040283529160200191610384565b820191906000526020600020905b81548152906001019060200180831161036757829003601f168201915b5050505050905090565b806002908161039d9190610a7b565b5050565b6000808273ffffffffffffffffffffffffffffffffffffffff163b119050919050565b600081519050919050565b600082825260208201905092915050565b60005b838110156103fe5780820151818401526020810190506103e3565b60008484015250505050565b6000601f19601f8301169050919050565b6000610426826103c4565b61043081856103cf565b93506104408185602086016103e0565b6104498161040a565b840191505092915050565b6000602082019050818103600083015261046e818461041b565b905092915050565b6000604051905090565b600080fd5b600080fd5b600080fd5b600080fd5b7f4e487b7100000000000000000000000000000000000000000000000000000000600052604160045260246000fd5b6104cc8261040a565b810181811067ffffffffffffffff821117156104eb576104ea610494565b5b80604052505050565b60006104fe610476565b905061050a82826104c3565b919050565b600067ffffffffffffffff82111561052a57610529610494565b5b6105338261040a565b9050602081019050919050565b82818337600083830152505050565b600061056261055d8461050f565b6104f4565b90508281526020810184848401111561057e5761057d61048f565b5b610589848285610540565b509392505050565b600082601f8301126105a6576105a561048a565b5b81356105b684826020860161054f565b91505092915050565b600080604083850312156105d6576105d5610480565b5b600083013567ffffffffffffffff8111156105f4576105f3610485565b5b61060085828601610591565b925050602083013567ffffffffffffffff81111561062157610620610485565b5b61062d85828601610591565b9150509250929050565b60006020828403121561064d5761064c610480565b5b600082013567ffffffffffffffff81111561066b5761066a610485565b5b61067784828501610591565b91505092915050565b7f4e487b7100000000000000000000000000000000000000000000000000000000600052602260045260246000fd5b600060028204905060018216806106c757607f821691505b6020821081036106da576106d9610680565b5b50919050565b600081905092915050565b7f492077696c6c20646f2077686174206576657220000000000000000000000000600082015250565b60006107216014836106e0565b915061072c826106eb565b601482019050919050565b60008190508160005260206000209050919050565b60008154610759816106af565b61076381866106e0565b9450600182166000811461077e5760018114610793576107c6565b60ff19831686528115158202860193506107c6565b61079c85610737565b60005b838110156107be5781548189015260018201915060208101905061079f565b838801955050505b50505092915050565b7f2074656c6c207573210000000000000000000000000000000000000000000000600082015250565b60006108056009836106e0565b9150610810826107cf565b600982019050919050565b600061082682610714565b9150610832828461074c565b915061083d826107f8565b915081905092915050565b7f496e697469616c697a61626c653a20636f6e747261637420697320616c72656160008201527f647920696e697469616c697a6564000000000000000000000000000000000000602082015250565b60006108a4602e836103cf565b91506108af82610848565b604082019050919050565b600060208201905081810360008301526108d381610897565b9050919050565b60006020601f8301049050919050565b600082821b905092915050565b6000600883026109277fffffffffffffffffffffffffffffffffffffffffffffffffffffffffffffffff826108ea565b61093186836108ea565b95508019841693508086168417925050509392505050565b6000819050919050565b6000819050919050565b600061097861097361096e84610949565b610953565b610949565b9050919050565b6000819050919050565b6109928361095d565b6109a661099e8261097f565b8484546108f7565b825550505050565b600090565b6109bb6109ae565b6109c6818484610989565b505050565b5b818110156109ea576109df6000826109b3565b6001810190506109cc565b5050565b601f821115610a2f57610a0081610737565b610a09846108da565b81016020851015610a18578190505b610a2c610a24856108da565b8301826109cb565b50505b505050565b600082821c905092915050565b6000610a5260001984600802610a34565b1980831691505092915050565b6000610a6b8383610a41565b9150826002028217905092915050565b610a84826103c4565b67ffffffffffffffff811115610a9d57610a9c610494565b5b610aa782546106af565b610ab28282856109ee565b600060209050601f831160018114610ae55760008415610ad3578287015190505b610add8582610a5f565b865550610b45565b601f198416610af386610737565b60005b82811015610b1b57848901518255600182019150602085019450602081019050610af6565b86831015610b385784890151610b34601f891682610a41565b8355505b6001600288020188555050505b505050505050565b6000819050919050565b600060ff82169050919050565b6000610b7f610b7a610b7584610b4d565b610953565b610b57565b9050919050565b610b8f81610b64565b82525050565b6000602082019050610baa6000830184610b86565b9291505056fea2646970667358221220da2763b339903df6047e3808d7f8e57dd3b6b9a46392252787cb6fc88458bf1564736f6c63430008110033a2646970667358221220c3d6c9d45ac30e4826000242f535e5b4ff06a2d559f60f02d6cedfaa18479a9464736f6c63430008110033",
  "immutableReferences": {},
  "source": "// SPDX-License-Identifier: MIT\npragma solidity >=0.4.22 <0.9.0;\n\nimport \"@openzeppelin/contracts/access/Ownable.sol\";\nimport \"./Robot.sol\";\n\ncontract RobotFactory is Ownable {\n  Robot[] public robotArray;\n  uint32 private robotCount = 0;\n\n  function createRobot(string memory _name, string memory _master) external onlyOwner returns(address)  {\n    Robot robot = new Robot();\n    robot.initialize(_name, _master);\n    robotArray.push(robot);\n    return address(robot);\n  }\n\n  function getRobotCount() external view returns (uint256) {\n    return robotArray.length;\n  }\n\n  function getAllRobots() public view returns(Robot[] memory) {\n    return robotArray;\n  }\n\n  function setRobotMaster(uint32 _idx, string memory _master) external onlyOwner {\n    Robot(address(robotArray[_idx])).setMaster(_master);\n  }\n\n  function getRobotMaster(uint32 _idx) public view returns(string memory) {\n    return Robot(address(robotArray[_idx])).getMaster();\n  }\n\n}\n",
  "sourcePath": "C:\\Work\\solidityProjects\\robotworld\\backend\\contracts\\RobotFactory.sol",
  "compiler": {
    "name": "solc",
    "version": "0.8.17+commit.8df45f5f.Emscripten.clang"
  },
  "schemaVersion": "3.4.10",
  "updatedAt": "2022-10-18T10:10:30.532Z",
  "networkType": "ethereum",
  "devdoc": {
    "kind": "dev",
    "methods": {
      "owner()": {
        "details": "Returns the address of the current owner."
      },
      "renounceOwnership()": {
        "details": "Leaves the contract without owner. It will not be possible to call `onlyOwner` functions anymore. Can only be called by the current owner. NOTE: Renouncing ownership will leave the contract without an owner, thereby removing any functionality that is only available to the owner."
      },
      "transferOwnership(address)": {
        "details": "Transfers ownership of the contract to a new account (`newOwner`). Can only be called by the current owner."
      }
    },
    "version": 1
  },
  "userdoc": {
    "kind": "user",
    "methods": {},
    "version": 1
  }
}